:030000000200FDFE
:0C00FD00787FE4F6D8FD75812E020144E6
:1001FD0041542B4349505354415254003D225443D2
:10020D0050222C223139322E3136382E312E3131C9
:10021D0031222C38303830004F4B0041542B43499C
:10022D005053454E44003D3435004448543131005F
:10023D0074656D706572617475726500E28483001A
:10024D004445430068756D696469747900524800CE
:0C025D0041542B434950434C4F53450083
:1003CB00EF1F8E8370011E458360227A037BE8EB5F
:1003DB001B8A8370011A458360E6E4FCFDC3ED9430
:0D03EB0078EC940050E90DBD00010C80F08D
:0103F80022E2
:10002600751FFF7520027521097522FF752302755C
:1000360024257BFF7A0179FD1203527F017E00128F
:1000460003CB751FFF7520027521337522FF7523BB
:10005600027524257BFF7A0279281203527F647E7B
:100066000012048A7BFF7A0279371204B77F7C126A
:1000760005017BFF7A02793D1204B77F7E120501E6
:10008600AF1A1205017F7E1205017BFF7A027949BC
:100096001204B77F7E1205017BFF7A02794D1204A6
:1000A600B77F7C1205017BFF7A0279511204B77F74
:1000B6007E120501AF161205017F7E1205017BFF38
:1000C6007A02795A1204B77F7E1205017BFF7A0203
:1000D600794D1204B77F2C7E0112048A751F0075B4
:1000E60020007521007522FF7523027524257BFFEC
:0700F6007A02795D0203525A
:10044C001200037F037E001203CB1202BC7F027EDC
:10045C00001203CBE4F52B120189E52B60F9120095
:03046C002680EAFD
:1003F9002B2B2B0041544530004F4B0041542B43CC
:10040900574155544F434F4E4E003D310041542BF7
:0A04190043574D4F4445003D3300AA
:0C04DE007F087E017DF3DDFEDEFCDFFA0E
:0104EA0022EF
:0804F8007F5A7EA3DEFEDFFC4B
:0105000022D8
:100352007525047526001204B7AB1FAA20A921AE89
:1003620002AF01EF4E60031204B77F0D1205017F49
:100372000A120501E5244523601220980DE5261591
:0C03820026AE25700215254E70F0C298C2
:01038E00224C
:1004A1007BFF7A0379F91204B71204F87F0D120564
:0604B100017F0A020501B3
:1002BC00751F007520007521007522FF75230475CC
:1002CC0024027BFF7A0379FD120352751FFF752000
:1002DC00047521137522FF7523047524027BFF7AA4
:1002EC00047905120352751FFF75200475212075C2
:1002FC0022FF7523047524027BFF7A04791602030E
:01030C00529E
:10048A00D3EF9400EE9400400DE4FD0DBD1BFCEF8C
:06049A001F70ED1E80EA58
:0104A0002239
:0C04EB00151C151C151C151C151C151CDF
:0104F70022E2
:10038F00E4FE751202209007AD120512ED70F61201
:10039F0004EB1204EBE4FF3090010F751202309062
:1003AF0007AD120512ED70F6E5126401600DE5144C
:0B03BF0025E0F514EF42140EBE08C745
:0103CA002210
:10018900C2907FB47E0012048AD2901204EB12044A
:10019900EB1204EB1204EBD2902090577512022057
:1001A9009007AF120512EF70F6751202309007AF83
:1001B900120512EF70F612038F85141812038F853A
:1001C900141912038F85141012038F851411120349
:1001D9008F851415D290E510251125182519B51507
:1001E9001285181685191785101A85111B8515137F
:0301F900752B0162
:0101FC0022E0
:1004CD00012A0001290002270000012B00012C0048
:1000030053877F75985053890F438920758BFD75EE
:0B0013008DFDC2ABD28ED2ACD2AF226A
:030023000202696D
:10026900C0E0C083C082C0D075D00830983CC29825
:10027900E528F445276033E599B40A087527007520
:10028900280080260528E528AE27700205271424B2
:1002990000F58274003EF583E599F0900005E0B41D
:1002A9004708A3E0B44F03752B01D0D0D082D08387
:0302B900D0E03260
:10046F007E017F007D007B017A007900120326E474
:0B047F00F52AF527F528F52BF52922BA
:080501008F993099FDC2992287
:1004B70012030D6010F5993099FDC299740129F95D
:0604C700E43AFA80EB228A
:040423008C2D8D2E61
:10042700E4FFFEC3EF952EEE952D501812030DF540
:10043700993099FDC299740129F9E43AFA0FBF007E
:04044700010E80DF43
:01044B00228E
:1001090002044CE493A3F8E493A34003F68001F2BC
:1001190008DFF48029E493A3F85407240CC8C333F7
:10012900C4540F4420C8834004F456800146F6DFC6
:10013900E4800B01020408102040809004CDE47E85
:10014900019360BCA3FF543F30E509541FFEE493BB
:10015900A360010ECF54C025E060A840B8E493A382
:10016900FAE493A3F8E493A3C8C582C8CAC583CAAD
:10017900F0A3C8C582C8CAC583CADFE9DEE780BE65
:0104DD00001E
:10030D00BB010689828A83E0225002E722BBFE02EE
:09031D00E32289828A83E4932221
:10032600EF4E6012EF60010EEDBB010B89828A83EE
:10033600F0A3DFFCDEFA2289F05007F709DFFCA9FB
:0C034600F022BBFEFCF309DFFCA9F02252
:00000001FF
