:030000000200FDFE
:0C00FD00787FE4F6D8FD75812E020144E6
:1001FD0041542B4349505354415254003D225443D2
:10020D0050222C223139322E3136382E312E3131C9
:10021D0031222C38303830004F4B0041542B43499C
:10022D005053454E44003D3435004448543131005F
:10023D0074656D706572617475726500E28483001A
:10024D004445430068756D696469747900524800CE
:0C025D0041542B434950434C4F53450083
:10043000EF1F8E8370011E458360227A037BE8EBF9
:100440001B8A8370011A458360E6E4FCFDC3ED94CA
:0D04500078EC940050E90DBD00010C80F027
:01045D00227C
:10002600751FFF7520027521097522FF752302755C
:1000360024257BFF7A0179FD1203B77F017E00122A
:100046000430751FFF7520027521337522FF752355
:10005600027524257BFF7A0279281203B77F647E16
:10006600001204CE7BFF7A0279371204FB7F7C12E2
:1000760005457BFF7A02793D1204FB7F7E1205451A
:10008600AF1A1205457F7E1205457BFF7A02794934
:100096001204FB7F7E1205457BFF7A02794D12041E
:1000A600FB7F7C1205457BFF7A0279511204FB7FA8
:1000B6007E120545AF161205457F7E1205457BFF6C
:1000C6007A02795A1204FB7F7E1205457BFF7A027B
:1000D600794D1204FB7F2C7E011204CE751F00752C
:1000E60020007521007522FF7523027524257BFFEC
:0700F6007A02795D0203B7F5
:10045E001200037F037E00120430120269E52B6046
:10046E00FCE4F52BC2AF7F027E001204301201892C
:0C047E00E52B60F9E4F52B12002680EA63
:100328002B2B2B0041544530004F4B0041542B439D
:10033800574155544F434F4E4E003D310041542BC9
:1003480043574D4F4445003D330041542B43574AD2
:100358004150003D2245535038323636222C223146
:0A03680032333435363738392200BD
:0C0522007F087E017DF3DDFEDEFCDFFAC9
:01052E0022AA
:08053C007F5A7EA3DEFEDFFC06
:010544002294
:1003B7007525047526001204FBAB1FAA20A921AEE0
:1003C70002AF01EF4E60031204FB7F0D1205457F5C
:1003D7000A120545E5244523601220980DE52615E8
:0C03E70026AE25700215254E70F0C2985D
:0103F30022E7
:1004E5007BFF7A0379281204FB12053C7F0D120568
:0604F500457F0A020545E7
:10026900751F007520007521007522FF7523037520
:1002790024317BFF7A03792C1203B7751FFF752090
:10028900037521427522FF7523037524317BFF7A9B
:100299000379341203B7751FFF75200375214F7554
:1002A90022FF7523037524317BFF7A0379451203F5
:1002B900B7751FFF75200375215B7522FF75230331
:0C02C9007524317BFF7A0379520203B7E1
:1004CE00D3EF9400EE9400400DE4FD0DBD1BFCEF48
:0604DE001F70ED1E80EA14
:0104E40022F5
:0C052F00151C151C151C151C151C151C9A
:01053B00229D
:1003F400E4FE751202208007AD120512ED70F612AC
:10040400052F12052FE4FF3080010F751202308092
:1004140007AD120512ED70F6E5126401600DE514E6
:0B04240025E0F514EF42140EBE08C7DF
:01042F0022AA
:10018900C2807FB47E001204CED28012052F1205E0
:100199002F12052F12052FD28020805775120220A9
:1001A9008007AF120512EF70F6751202308007AFA3
:1001B900120512EF70F61203F48514181203F48570
:1001C90014191203F48514101203F485141112037F
:1001D900F4851415D280E510251125182519B515B2
:1001E9001285181685191785101A85111B8515137F
:0301F900752B0162
:0101FC0022E0
:10051100012A0001290002270000012B00012C0003
:1000030053877F75985053890F438920758BFD75EE
:0B0013008DFDC2ABD28ED2ACD2AF226A
:030023000202D501
:1002D500C0E0C083C082C0D075D00830983CC298B9
:1002E500E528F445276033E599B40A0875270075B4
:1002F500280080260528E528AE2770020527142446
:1003050000F58274003EF583E599F0900005E0B4B0
:100315004708A3E0B44F03752B01D0D0D082D0831A
:03032500D0E032F3
:1004B3007E017F007D007B017A00790012038BE4CB
:0B04C300F52AF527F528F52BF5292276
:080545008F993099FDC2992243
:1004FB001203726010F5993099FDC299740129F9B4
:06050B00E43AFA80EB2245
:04048A008C2D8D2EFA
:10048E00E4FFFEC3EF952EEE952D5018120372F574
:10049E00993099FDC299740129F9E43AFA0FBF0017
:0404AE00010E80DFDC
:0104B2002227
:1001090002045EE493A3F8E493A34003F68001F2AA
:1001190008DFF48029E493A3F85407240CC8C333F7
:10012900C4540F4420C8834004F456800146F6DFC6
:10013900E4800B0102040810204080900511E47E40
:10014900019360BCA3FF543F30E509541FFEE493BB
:10015900A360010ECF54C025E060A840B8E493A382
:10016900FAE493A3F8E493A3C8C582C8CAC583CAAD
:10017900F0A3C8C582C8CAC583CADFE9DEE780BE65
:0105210000D9
:10037200BB010689828A83E0225002E722BBFE0289
:09038200E32289828A83E49322BC
:10038B00EF4E6012EF60010EEDBB010B89828A8389
:10039B00F0A3DFFCDEFA2289F05007F709DFFCA996
:0C03AB00F022BBFEFCF309DFFCA9F022ED
:00000001FF
