:030000000200FDFE
:0C00FD00787FE4F6D8FD75812E020144E6
:1001FA0041542B4349505354415254003D225443D5
:10020A0050222C223139322E3136382E312E3131CC
:10021A0031222C38303830004F4B0041542B43499F
:10022A005053454E44003D34350044485431310062
:10023A0074656D706572617475726500E28483001D
:10024A004445430068756D696469747900524800D1
:0C025A0041542B434950434C4F53450086
:10042D00EF1F8E8370011E458360227A037BE8EBFC
:10043D001B8A8370011A458360E6E4FCFDC3ED94CD
:0D044D0078EC940050E90DBD00010C80F02A
:01045A00227F
:10002600751FFF7520027521067522FF752302755F
:1000360024227BFF7A0179FA1203B47F017E001233
:10004600042D751FFF7520027521307522FF75235B
:10005600027524227BFF7A0279251203B47F647E1F
:10006600001204C17BFF7A0279341204EE7F7C12FF
:1000760005387BFF7A02793A1204EE7F7E12053844
:10008600AF1A1205387F7E1205387BFF7A02794651
:100096001204EE7F7E1205387BFF7A02794A12043B
:1000A600EE7F7C1205387BFF7A02794E1204EE7FD2
:1000B6007E120538AF161205387F7E1205387BFF93
:1000C6007A0279571204EE7F7E1205387BFF7A0298
:1000D600794A1204EE7F2C7E011204C1751F007549
:1000E60020007521007522FF7523027524227BFFEF
:0700F6007A02795A0203B4FB
:100484001200037F037E0012042D120266E52B6026
:10049400FCC2AF7F027E0012042D120189120026D5
:0204A40080F1E5
:100325002B2B2B0041544530004F4B0041542B43A0
:10033500574155544F434F4E4E003D310041542BCC
:1003450043574D4F4445003D330041542B43574AD5
:100355004150003D2245535038323636222C223149
:0A03650032333435363738392200C0
:0C0515007F087E017DF3DDFEDEFCDFFAD6
:0105210022B7
:08052F007F5A7EA3DEFEDFFC13
:0105370022A1
:1003B4007525047526001204EEAB1FAA20A921AEF0
:1003C40002AF01EF4E60031204EE7F0D1205387F79
:1003D4000A120538E5244523601220980DE52615F8
:0C03E40026AE25700215254E70F0C29860
:0103F00022EA
:1004D8007BFF7A0379251204EE12052F7F0D120592
:0604E800387F0A0205380E
:10026600751F007520007521007522FF7523037523
:10027600242E7BFF7A0379291203B4751FFF75209C
:100286000375213F7522FF75230375242E7BFF7AA4
:100296000379311203B4751FFF75200375214C7560
:1002A60022FF75230375242E7BFF7A0379421203FE
:1002B600B4751FFF7520037521587522FF7523033A
:0C02C60075242E7BFF7A03794F0203B4ED
:1004C100D3EF9400EE9400400DE4FD0DBD1BFCEF55
:0604D1001F70ED1E80EA21
:0104D7002202
:0C052200151C151C151C151C151C151CA7
:01052E0022AA
:1003F100E4FE751202208007AD120512ED70F612AF
:100401000522120522E4FF3080010F7512023080AF
:1004110007AD120512ED70F6E5126401600DE514E9
:0B04210025E0F514EF42140EBE08C7E2
:01042C0022AD
:10018900C2807FB47E001204C1D2801205221205FA
:1001990022120522120522D28020805475120220D3
:1001A9008007AF120512EF70F6751202308007AFA3
:1001B900120512EF70F61203F18514181203F18576
:1001C90014191203F18514101203F1851411120385
:1001D900F1851415D280E510251125182519B515B5
:1001E9000F85181685191785101A85111B85151382
:0101F90022E3
:10050400012A0001290002270000012B00012C0010
:1000030053877F75985053890F438920758BFD75EE
:0B0013008DFDC2ABD28ED2ACD2AF226A
:030023000202D204
:1002D200C0E0C083C082C0D075D00830983CC298BC
:1002E200E528F445276033E599B40A0875270075B7
:1002F200280080260528E528AE2770020527142449
:1003020000F58274003EF583E599F0900005E0B4B3
:100312004708A3E0B44F03752B01D0D0D082D0831D
:03032200D0E032F6
:1004A6007E017F007D007B017A007900120388E4DB
:0B04B600F52AF527F528F52BF5292283
:080538008F993099FDC2992250
:1004EE0012036F6010F5993099FDC299740129F9C4
:0604FE00E43AFA80EB2253
:04045B008C2D8D2E29
:10045F00E4FFFEC3EF952EEE952D501812036FF5A6
:10046F00993099FDC299740129F9E43AFA0FBF0046
:04047F00010E80DF0B
:010483002256
:10010900020484E493A3F8E493A34003F68001F284
:1001190008DFF48029E493A3F85407240CC8C333F7
:10012900C4540F4420C8834004F456800146F6DFC6
:10013900E4800B0102040810204080900504E47E4D
:10014900019360BCA3FF543F30E509541FFEE493BB
:10015900A360010ECF54C025E060A840B8E493A382
:10016900FAE493A3F8E493A3C8C582C8CAC583CAAD
:10017900F0A3C8C582C8CAC583CADFE9DEE780BE65
:0105140000E6
:10036F00BB010689828A83E0225002E722BBFE028C
:09037F00E32289828A83E49322BF
:10038800EF4E6012EF60010EEDBB010B89828A838C
:10039800F0A3DFFCDEFA2289F05007F709DFFCA999
:0C03A800F022BBFEFCF309DFFCA9F022F0
:00000001FF
